{
  "_format": "hh-sol-artifact-1",
  "contractName": "PharmaBatchTracker",
  "sourceName": "contracts/PharmaBatchTracker.sol",
  "abi": [
    {
      "anonymous": false,
      "inputs": [
        {
          "indexed": true,
          "internalType": "bytes32",
          "name": "batchID",
          "type": "bytes32"
        },
        {
          "indexed": true,
          "internalType": "address",
          "name": "manufacturer",
          "type": "address"
        },
        {
          "indexed": false,
          "internalType": "uint256",
          "name": "timestamp",
          "type": "uint256"
        }
      ],
      "name": "BatchRecalled",
      "type": "event"
    },
    {
      "anonymous": false,
      "inputs": [
        {
          "indexed": true,
          "internalType": "bytes32",
          "name": "batchID",
          "type": "bytes32"
        },
        {
          "indexed": true,
          "internalType": "address",
          "name": "manufacturer",
          "type": "address"
        },
        {
          "indexed": false,
          "internalType": "bytes32",
          "name": "metadataHash",
          "type": "bytes32"
        },
        {
          "indexed": false,
          "internalType": "uint256",
          "name": "timestamp",
          "type": "uint256"
        }
      ],
      "name": "BatchRegistered",
      "type": "event"
    },
    {
      "anonymous": false,
      "inputs": [
        {
          "indexed": true,
          "internalType": "bytes32",
          "name": "batchID",
          "type": "bytes32"
        },
        {
          "indexed": true,
          "internalType": "address",
          "name": "from",
          "type": "address"
        },
        {
          "indexed": true,
          "internalType": "address",
          "name": "to",
          "type": "address"
        },
        {
          "indexed": false,
          "internalType": "uint256",
          "name": "timestamp",
          "type": "uint256"
        }
      ],
      "name": "BatchTransferred",
      "type": "event"
    },
    {
      "inputs": [
        {
          "internalType": "bytes32",
          "name": "",
          "type": "bytes32"
        }
      ],
      "name": "batches",
      "outputs": [
        {
          "internalType": "address",
          "name": "manufacturer",
          "type": "address"
        },
        {
          "internalType": "address",
          "name": "currentOwner",
          "type": "address"
        },
        {
          "internalType": "bytes32",
          "name": "metadataHash",
          "type": "bytes32"
        },
        {
          "internalType": "bool",
          "name": "recalled",
          "type": "bool"
        }
      ],
      "stateMutability": "view",
      "type": "function"
    },
    {
      "inputs": [
        {
          "internalType": "bytes32",
          "name": "",
          "type": "bytes32"
        },
        {
          "internalType": "uint256",
          "name": "",
          "type": "uint256"
        }
      ],
      "name": "custodyHistory",
      "outputs": [
        {
          "internalType": "address",
          "name": "",
          "type": "address"
        }
      ],
      "stateMutability": "view",
      "type": "function"
    },
    {
      "inputs": [
        {
          "internalType": "bytes32",
          "name": "_batchID",
          "type": "bytes32"
        }
      ],
      "name": "getCustodyCount",
      "outputs": [
        {
          "internalType": "uint256",
          "name": "count",
          "type": "uint256"
        }
      ],
      "stateMutability": "view",
      "type": "function"
    },
    {
      "inputs": [
        {
          "internalType": "bytes32",
          "name": "_batchID",
          "type": "bytes32"
        }
      ],
      "name": "getCustodyHistory",
      "outputs": [
        {
          "internalType": "address[]",
          "name": "owners",
          "type": "address[]"
        }
      ],
      "stateMutability": "view",
      "type": "function"
    },
    {
      "inputs": [
        {
          "internalType": "bytes32",
          "name": "_batchID",
          "type": "bytes32"
        }
      ],
      "name": "recallBatch",
      "outputs": [],
      "stateMutability": "nonpayable",
      "type": "function"
    },
    {
      "inputs": [
        {
          "internalType": "bytes32",
          "name": "_batchID",
          "type": "bytes32"
        },
        {
          "internalType": "bytes32",
          "name": "_metadataHash",
          "type": "bytes32"
        }
      ],
      "name": "registerBatch",
      "outputs": [],
      "stateMutability": "nonpayable",
      "type": "function"
    },
    {
      "inputs": [
        {
          "internalType": "bytes32",
          "name": "_batchID",
          "type": "bytes32"
        },
        {
          "internalType": "address",
          "name": "_newOwner",
          "type": "address"
        }
      ],
      "name": "transferBatch",
      "outputs": [],
      "stateMutability": "nonpayable",
      "type": "function"
    },
    {
      "inputs": [
        {
          "internalType": "bytes32",
          "name": "_batchID",
          "type": "bytes32"
        }
      ],
      "name": "verifyBatch",
      "outputs": [
        {
          "internalType": "address",
          "name": "manufacturer",
          "type": "address"
        },
        {
          "internalType": "address",
          "name": "currentOwner",
          "type": "address"
        },
        {
          "internalType": "bytes32",
          "name": "metadataHash",
          "type": "bytes32"
        },
        {
          "internalType": "bool",
          "name": "recalled",
          "type": "bool"
        }
      ],
      "stateMutability": "view",
      "type": "function"
    }
  ],
  "bytecode": "0x608060405234801561001057600080fd5b506115fc806100206000396000f3fe608060405234801561001057600080fd5b50600436106100885760003560e01c8063c57a63a21161005b578063c57a63a214610139578063c81e25ab14610155578063d3b05c2e14610188578063e0c9fdcb146101a457610088565b80630c13e6db1461008d578063104b2101146100a95780638c1e7ae4146100d9578063c36279e214610109575b600080fd5b6100a760048036038101906100a29190610e6a565b6101d7565b005b6100c360048036038101906100be9190610e6a565b610405565b6040516100d09190610eb0565b60405180910390f35b6100f360048036038101906100ee9190610e6a565b6104cb565b6040516101009190610fbb565b60405180910390f35b610123600480360381019061011e9190611009565b610612565b6040516101309190611058565b60405180910390f35b610153600480360381019061014e9190611073565b610660565b005b61016f600480360381019061016a9190610e6a565b6108ea565b60405161017f94939291906110dd565b60405180910390f35b6101a2600480360381019061019d919061114e565b610967565b005b6101be60048036038101906101b99190610e6a565b610cfc565b6040516101ce94939291906110dd565b60405180910390f35b80600073ffffffffffffffffffffffffffffffffffffffff1660008083815260200190815260200160002060000160009054906101000a900473ffffffffffffffffffffffffffffffffffffffff1673ffffffffffffffffffffffffffffffffffffffff160361027c576040517f08c379a000000000000000000000000000000000000000000000000000000000815260040161027390611211565b60405180910390fd5b8160008082815260200190815260200160002060000160009054906101000a900473ffffffffffffffffffffffffffffffffffffffff1673ffffffffffffffffffffffffffffffffffffffff163373ffffffffffffffffffffffffffffffffffffffff1614610320576040517f08c379a0000000000000000000000000000000000000000000000000000000008152600401610317906112a3565b60405180910390fd5b60008084815260200190815260200160002060030160009054906101000a900460ff1615610383576040517f08c379a000000000000000000000000000000000000000000000000000000000815260040161037a90611335565b60405180910390fd5b600160008085815260200190815260200160002060030160006101000a81548160ff0219169083151502179055503373ffffffffffffffffffffffffffffffffffffffff16837f088e454481c92d8f64db932399bdc5dac6d757f63a69e70a89646c82576e8301426040516103f89190610eb0565b60405180910390a3505050565b600081600073ffffffffffffffffffffffffffffffffffffffff1660008083815260200190815260200160002060000160009054906101000a900473ffffffffffffffffffffffffffffffffffffffff1673ffffffffffffffffffffffffffffffffffffffff16036104ac576040517f08c379a00000000000000000000000000000000000000000000000000000000081526004016104a390611211565b60405180910390fd5b6001600084815260200190815260200160002080549050915050919050565b606081600073ffffffffffffffffffffffffffffffffffffffff1660008083815260200190815260200160002060000160009054906101000a900473ffffffffffffffffffffffffffffffffffffffff1673ffffffffffffffffffffffffffffffffffffffff1603610572576040517f08c379a000000000000000000000000000000000000000000000000000000000815260040161056990611211565b60405180910390fd5b6001600084815260200190815260200160002080548060200260200160405190810160405280929190818152602001828054801561060557602002820191906000526020600020905b8160009054906101000a900473ffffffffffffffffffffffffffffffffffffffff1673ffffffffffffffffffffffffffffffffffffffff16815260200190600101908083116105bb575b5050505050915050919050565b6001602052816000526040600020818154811061062e57600080fd5b906000526020600020016000915091509054906101000a900473ffffffffffffffffffffffffffffffffffffffff1681565b600073ffffffffffffffffffffffffffffffffffffffff1660008084815260200190815260200160002060000160009054906101000a900473ffffffffffffffffffffffffffffffffffffffff1673ffffffffffffffffffffffffffffffffffffffff1614610704576040517f08c379a00000000000000000000000000000000000000000000000000000000081526004016106fb906113c7565b60405180910390fd5b60405180608001604052803373ffffffffffffffffffffffffffffffffffffffff1681526020013373ffffffffffffffffffffffffffffffffffffffff1681526020018281526020016000151581525060008084815260200190815260200160002060008201518160000160006101000a81548173ffffffffffffffffffffffffffffffffffffffff021916908373ffffffffffffffffffffffffffffffffffffffff16021790555060208201518160010160006101000a81548173ffffffffffffffffffffffffffffffffffffffff021916908373ffffffffffffffffffffffffffffffffffffffff1602179055506040820151816002015560608201518160030160006101000a81548160ff02191690831515021790555090505060016000838152602001908152602001600020339080600181540180825580915050600190039060005260206000200160009091909190916101000a81548173ffffffffffffffffffffffffffffffffffffffff021916908373ffffffffffffffffffffffffffffffffffffffff1602179055503373ffffffffffffffffffffffffffffffffffffffff16827faa00b970729267f074efda2d8a42509a1ce0ed0eed2d49126742b2741208cb7783426040516108de9291906113e7565b60405180910390a35050565b60006020528060005260406000206000915090508060000160009054906101000a900473ffffffffffffffffffffffffffffffffffffffff16908060010160009054906101000a900473ffffffffffffffffffffffffffffffffffffffff16908060020154908060030160009054906101000a900460ff16905084565b81600073ffffffffffffffffffffffffffffffffffffffff1660008083815260200190815260200160002060000160009054906101000a900473ffffffffffffffffffffffffffffffffffffffff1673ffffffffffffffffffffffffffffffffffffffff1603610a0c576040517f08c379a0000000000000000000000000000000000000000000000000000000008152600401610a0390611211565b60405180910390fd5b8260008082815260200190815260200160002060010160009054906101000a900473ffffffffffffffffffffffffffffffffffffffff1673ffffffffffffffffffffffffffffffffffffffff163373ffffffffffffffffffffffffffffffffffffffff1614610ab0576040517f08c379a0000000000000000000000000000000000000000000000000000000008152600401610aa790611482565b60405180910390fd5b600073ffffffffffffffffffffffffffffffffffffffff168373ffffffffffffffffffffffffffffffffffffffff1603610b1f576040517f08c379a0000000000000000000000000000000000000000000000000000000008152600401610b1690611514565b60405180910390fd5b3373ffffffffffffffffffffffffffffffffffffffff168373ffffffffffffffffffffffffffffffffffffffff1603610b8d576040517f08c379a0000000000000000000000000000000000000000000000000000000008152600401610b84906115a6565b60405180910390fd5b600080600086815260200190815260200160002060010160009054906101000a900473ffffffffffffffffffffffffffffffffffffffff1690508360008087815260200190815260200160002060010160006101000a81548173ffffffffffffffffffffffffffffffffffffffff021916908373ffffffffffffffffffffffffffffffffffffffff16021790555060016000868152602001908152602001600020849080600181540180825580915050600190039060005260206000200160009091909190916101000a81548173ffffffffffffffffffffffffffffffffffffffff021916908373ffffffffffffffffffffffffffffffffffffffff1602179055508373ffffffffffffffffffffffffffffffffffffffff168173ffffffffffffffffffffffffffffffffffffffff16867f8cc681ed5ed2348b713b4ae69b9cf4e70bac35ce9fbd1e048146e26a944be11942604051610ced9190610eb0565b60405180910390a45050505050565b60008060008084600073ffffffffffffffffffffffffffffffffffffffff1660008083815260200190815260200160002060000160009054906101000a900473ffffffffffffffffffffffffffffffffffffffff1673ffffffffffffffffffffffffffffffffffffffff1603610da7576040517f08c379a0000000000000000000000000000000000000000000000000000000008152600401610d9e90611211565b60405180910390fd5b600080600088815260200190815260200160002090508060000160009054906101000a900473ffffffffffffffffffffffffffffffffffffffff168160010160009054906101000a900473ffffffffffffffffffffffffffffffffffffffff1682600201548360030160009054906101000a900460ff16955095509550955050509193509193565b600080fd5b6000819050919050565b610e4781610e34565b8114610e5257600080fd5b50565b600081359050610e6481610e3e565b92915050565b600060208284031215610e8057610e7f610e2f565b5b6000610e8e84828501610e55565b91505092915050565b6000819050919050565b610eaa81610e97565b82525050565b6000602082019050610ec56000830184610ea1565b92915050565b600081519050919050565b600082825260208201905092915050565b6000819050602082019050919050565b600073ffffffffffffffffffffffffffffffffffffffff82169050919050565b6000610f2282610ef7565b9050919050565b610f3281610f17565b82525050565b6000610f448383610f29565b60208301905092915050565b6000602082019050919050565b6000610f6882610ecb565b610f728185610ed6565b9350610f7d83610ee7565b8060005b83811015610fae578151610f958882610f38565b9750610fa083610f50565b925050600181019050610f81565b5085935050505092915050565b60006020820190508181036000830152610fd58184610f5d565b905092915050565b610fe681610e97565b8114610ff157600080fd5b50565b60008135905061100381610fdd565b92915050565b600080604083850312156110205761101f610e2f565b5b600061102e85828601610e55565b925050602061103f85828601610ff4565b9150509250929050565b61105281610f17565b82525050565b600060208201905061106d6000830184611049565b92915050565b6000806040838503121561108a57611089610e2f565b5b600061109885828601610e55565b92505060206110a985828601610e55565b9150509250929050565b6110bc81610e34565b82525050565b60008115159050919050565b6110d7816110c2565b82525050565b60006080820190506110f26000830187611049565b6110ff6020830186611049565b61110c60408301856110b3565b61111960608301846110ce565b95945050505050565b61112b81610f17565b811461113657600080fd5b50565b60008135905061114881611122565b92915050565b6000806040838503121561116557611164610e2f565b5b600061117385828601610e55565b925050602061118485828601611139565b9150509250929050565b600082825260208201905092915050565b7f506861726d614261746368547261636b65723a20626174636820646f6573206e60008201527f6f74206578697374000000000000000000000000000000000000000000000000602082015250565b60006111fb60288361118e565b91506112068261119f565b604082019050919050565b6000602082019050818103600083015261122a816111ee565b9050919050565b7f506861726d614261746368547261636b65723a2063616c6c6572206973206e6f60008201527f7420746865206d616e7566616374757265720000000000000000000000000000602082015250565b600061128d60328361118e565b915061129882611231565b604082019050919050565b600060208201905081810360008301526112bc81611280565b9050919050565b7f506861726d614261746368547261636b65723a20626174636820616c7265616460008201527f7920726563616c6c656400000000000000000000000000000000000000000000602082015250565b600061131f602a8361118e565b915061132a826112c3565b604082019050919050565b6000602082019050818103600083015261134e81611312565b9050919050565b7f506861726d614261746368547261636b65723a20626174636820616c7265616460008201527f7920726567697374657265640000000000000000000000000000000000000000602082015250565b60006113b1602c8361118e565b91506113bc82611355565b604082019050919050565b600060208201905081810360008301526113e0816113a4565b9050919050565b60006040820190506113fc60008301856110b3565b6114096020830184610ea1565b9392505050565b7f506861726d614261746368547261636b65723a2063616c6c6572206973206e6f60008201527f74207468652063757272656e74206f776e657200000000000000000000000000602082015250565b600061146c60338361118e565b915061147782611410565b604082019050919050565b6000602082019050818103600083015261149b8161145f565b9050919050565b7f506861726d614261746368547261636b65723a2063616e6e6f74207472616e7360008201527f66657220746f207a65726f206164647265737300000000000000000000000000602082015250565b60006114fe60338361118e565b9150611509826114a2565b604082019050919050565b6000602082019050818103600083015261152d816114f1565b9050919050565b7f506861726d614261746368547261636b65723a2063616e6e6f74207472616e7360008201527f66657220746f2073656c66000000000000000000000000000000000000000000602082015250565b6000611590602b8361118e565b915061159b82611534565b604082019050919050565b600060208201905081810360008301526115bf81611583565b905091905056fea2646970667358221220e8a80e032dca0ff43039cda7fde13b625a902979618baeaa6db0c20941b8b86c64736f6c63430008110033",
  "linkReferences": {},
  "deployedLinkReferences": {}
}